{
  "contractName": "IterableMapping",
  "abi": [
    {
      "constant": false,
      "inputs": [
        {
          "name": "self",
          "type": "IterableMapping.itmap storage"
        },
        {
          "name": "key",
          "type": "uint256"
        },
        {
          "name": "value",
          "type": "uint256"
        }
      ],
      "name": "insert",
      "outputs": [
        {
          "name": "replaced",
          "type": "bool"
        }
      ],
      "payable": false,
      "stateMutability": "nonpayable",
      "type": "function"
    },
    {
      "constant": false,
      "inputs": [
        {
          "name": "self",
          "type": "IterableMapping.itmap storage"
        },
        {
          "name": "key",
          "type": "uint256"
        }
      ],
      "name": "remove",
      "outputs": [
        {
          "name": "",
          "type": "bool"
        }
      ],
      "payable": false,
      "stateMutability": "nonpayable",
      "type": "function"
    },
    {
      "constant": false,
      "inputs": [
        {
          "name": "self",
          "type": "IterableMapping.itmap storage"
        },
        {
          "name": "keyIdx",
          "type": "uint256"
        }
      ],
      "name": "iterate_get",
      "outputs": [
        {
          "name": "key",
          "type": "uint256"
        },
        {
          "name": "value",
          "type": "uint256"
        }
      ],
      "payable": false,
      "stateMutability": "nonpayable",
      "type": "function"
    },
    {
      "constant": false,
      "inputs": [
        {
          "name": "self",
          "type": "IterableMapping.itmap storage"
        },
        {
          "name": "key",
          "type": "uint256"
        }
      ],
      "name": "iterate_contains",
      "outputs": [
        {
          "name": "",
          "type": "bool"
        }
      ],
      "payable": false,
      "stateMutability": "nonpayable",
      "type": "function"
    },
    {
      "constant": false,
      "inputs": [
        {
          "name": "self",
          "type": "IterableMapping.itmap storage"
        },
        {
          "name": "_keyIndex",
          "type": "uint256"
        }
      ],
      "name": "iterate_next",
      "outputs": [
        {
          "name": "",
          "type": "uint256"
        }
      ],
      "payable": false,
      "stateMutability": "nonpayable",
      "type": "function"
    },
    {
      "constant": false,
      "inputs": [
        {
          "name": "self",
          "type": "IterableMapping.itmap storage"
        }
      ],
      "name": "iterate_start",
      "outputs": [
        {
          "name": "keyIndex",
          "type": "uint256"
        }
      ],
      "payable": false,
      "stateMutability": "nonpayable",
      "type": "function"
    },
    {
      "constant": false,
      "inputs": [
        {
          "name": "self",
          "type": "IterableMapping.itmap storage"
        },
        {
          "name": "keyIndex",
          "type": "uint256"
        }
      ],
      "name": "iterate_valid",
      "outputs": [
        {
          "name": "",
          "type": "bool"
        }
      ],
      "payable": false,
      "stateMutability": "nonpayable",
      "type": "function"
    }
  ],
  "bytecode": "0x6105fd610030600b82828239805160001a6073146000811461002057610022565bfe5b5030600052607381538281f300730000000000000000000000000000000000000000301460806040526004361061009a576000357c0100000000000000000000000000000000000000000000000000000000900463ffffffff1680635ae284c71461009f57806375a3e8e8146100ee5780637e5236451461014057806388d0443714610199578063a21ab716146101e4578063c8fccc6914610225578063e11b7ea414610274575b600080fd5b8180156100ab57600080fd5b506100d460048036038101908080359060200190929190803590602001909291905050506102c3565b604051808215151515815260200191505060405180910390f35b8180156100fa57600080fd5b5061012360048036038101908080359060200190929190803590602001909291905050506102e8565b604051808381526020018281526020019250505060405180910390f35b81801561014c57600080fd5b5061017f600480360381019080803590602001909291908035906020019092919080359060200190929190505050610332565b604051808215151515815260200191505060405180910390f35b8180156101a557600080fd5b506101ce60048036038101908080359060200190929190803590602001909291905050506103ff565b6040518082815260200191505060405180910390f35b8180156101f057600080fd5b5061020f60048036038101908080359060200190929190505050610467565b6040518082815260200191505060405180910390f35b81801561023157600080fd5b5061025a6004803603810190808035906020019092919080359060200190929190505050610499565b604051808215151515815260200191505060405180910390f35b81801561028057600080fd5b506102a960048036038101908080359060200190929190803590602001909291905050506104ad565b604051808215151515815260200191505060405180910390f35b6000808360020160008481526020019081526020016000206000015411905092915050565b60008083600101838154811015156102fc57fe5b90600052602060002090600202016000015491508360020160008381526020019081526020016000206001015490509250929050565b6000808460020160008581526020019081526020016000206000015490508285600201600086815260200190815260200160002060010181905550600081111561037f57600191506103f7565b8460010180548091906001016103959190610564565b905060018101856002016000868152602001908152602001600020600001819055508385600101828154811015156103c957fe5b9060005260206000209060020201600001819055508460000160008154809291906001019190505550600091505b509392505050565b600081806001019250505b82600101805490508210801561044c5750826001018281548110151561042c57fe5b906000526020600020906002020160010160009054906101000a900460ff165b1561045e57818060010192505061040a565b81905092915050565b6000610493827fffffffffffffffffffffffffffffffffffffffffffffffffffffffffffffffff6103ff565b50919050565b600082600101805490508210905092915050565b60008083600201600084815260200190815260200160002060000154905060008114156104dd576000915061055d565b836002016000848152602001908152602001600020600080820160009055600182016000905550506001846001016001830381548110151561051b57fe5b906000526020600020906002020160010160006101000a81548160ff021916908315150217905550836000016000815480929190600190039190505550600191505b5092915050565b815481835581811115610591576002028160020283600052602060002091820191016105909190610596565b5b505050565b6105ce91905b808211156105ca576000808201600090556001820160006101000a81549060ff02191690555060020161059c565b5090565b905600a165627a7a723058203765052249984c98c8895bcb869a71aaa9e7ab63a244ad3292a57893fd0b9a0a0029",
  "source": "// 实现mapping遍历\npragma solidity ^0.4.18;\n\n// mapping 遍历库\nlibrary IterableMapping {\n    // 自己新增相关索引\n\n    // 可遍历mapping结构\n    struct itmap {\n        // 大小\n        uint size;\n        // 存储所有keys\n        KeyFlag []keys;\n        // data-->mapping\n        // 以mapping key为索引，index为值的map结构\n        mapping(uint => IndexValue) data;\n    }\n    // 添加一个keys的列表\n    struct KeyFlag {\n        // key值\n        uint key;\n        // 是否删除\n        bool deleted;\n    }\n\n    // value结构\n    struct IndexValue {\n        // key值索引进行关联\n        uint keyIndex;\n        // value\n        uint value;\n    }\n\n    // 插入(修改)数据\n    function insert(itmap storage self, uint key, uint value) returns(bool replaced) {\n        // 优先插入数据\n        uint keyIdx = self.data[key].keyIndex;\n        self.data[key].value = value;\n        if(keyIdx > 0) {\n            return true;\n        } else {\n            // keys列表长度加1得到最新的keyIdx\n            // (因为我们是先插入，所以采用后加)\n            keyIdx = self.keys.length++;\n\n            self.data[key].keyIndex = keyIdx + 1;\n            self.keys[keyIdx].key = key;\n            // mapping长度加1\n            self.size++;\n            return false;\n        }\n    }\n\n    // 删除数据\n    function remove(itmap storage self, uint key) returns(bool) {\n        // 得到key索引\n        uint keyIdx = self.data[key].keyIndex;\n        if(keyIdx == 0) {\n            // 表示不存在要查找的key值\n            return false;\n        } else {\n            delete self.data[key];\n            // 标记为已删除\n            self.keys[keyIdx - 1].deleted = true;\n            // 长度减1\n            self.size--;\n            return true;\n        }\n    }\n    // 获取数据\n    function iterate_get(itmap storage self, uint keyIdx) returns(uint key, uint value) {\n        key = self.keys[keyIdx].key;\n        value = self.data[key].value;\n    }\n    // 包含\n    function iterate_contains(itmap storage self, uint key) returns(bool) {\n        return self.data[key].keyIndex > 0;\n    }\n\n    // 获取下一个索引\n    function iterate_next(itmap storage self, uint _keyIndex) returns(uint) {\n        _keyIndex++;\n        while(_keyIndex < self.keys.length && self.keys[_keyIndex].deleted) {\n            _keyIndex++;\n        }\n        return _keyIndex;\n    }\n\n    // 开始遍历\n    function iterate_start(itmap storage self) returns(uint keyIndex) {\n        // uint(-1) = 2 ** 256 -1\n        iterate_next(self,uint(-1));\n    }\n\n    // 判断循环是否要退出\n    function iterate_valid(itmap storage self, uint keyIndex) returns(bool) {\n        return keyIndex < self.keys.length;\n    }\n}\n",
  "sourcePath": "/home/eth/eth1802/day13/1_mapping/contracts/Iterable_mapping.sol",
  "compiler": {
    "name": "solc",
    "version": "0.4.24+commit.e67f0147.Emscripten.clang"
  },
  "schemaVersion": "2.0.1",
  "updatedAt": "2018-11-29T01:43:54.375Z"
}