{
  "contractName": "User",
  "abi": [
    {
      "constant": false,
      "inputs": [
        {
          "name": "key",
          "type": "uint256"
        },
        {
          "name": "value",
          "type": "uint256"
        }
      ],
      "name": "insert",
      "outputs": [
        {
          "name": "",
          "type": "uint256"
        }
      ],
      "payable": false,
      "stateMutability": "nonpayable",
      "type": "function"
    },
    {
      "constant": false,
      "inputs": [],
      "name": "sum",
      "outputs": [
        {
          "name": "s",
          "type": "uint256"
        }
      ],
      "payable": false,
      "stateMutability": "nonpayable",
      "type": "function"
    },
    {
      "constant": false,
      "inputs": [
        {
          "name": "key",
          "type": "uint256"
        }
      ],
      "name": "remove",
      "outputs": [],
      "payable": false,
      "stateMutability": "nonpayable",
      "type": "function"
    }
  ],
  "bytecode": "0x608060405234801561001057600080fd5b50610586806100206000396000f300608060405260043610610057576000357c0100000000000000000000000000000000000000000000000000000000900463ffffffff1680631d834a1b1461005c5780634cc82215146100a7578063853255cc146100d4575b600080fd5b34801561006857600080fd5b5061009160048036038101908080359060200190929190803590602001909291905050506100ff565b6040518082815260200191505060405180910390f35b3480156100b357600080fd5b506100d2600480360381019080803590602001909291905050506101c6565b005b3480156100e057600080fd5b506100e9610279565b6040518082815260200191505060405180910390f35b600073__IterableMapping_______________________637e523645600085856040518463ffffffff167c010000000000000000000000000000000000000000000000000000000002815260040180848152602001838152602001828152602001935050505060206040518083038186803b15801561017d57600080fd5b505af4158015610191573d6000803e3d6000fd5b505050506040513d60208110156101a757600080fd5b8101908080519060200190929190505050506000800154905092915050565b73__IterableMapping_______________________63e11b7ea46000836040518363ffffffff167c0100000000000000000000000000000000000000000000000000000000028152600401808381526020018281526020019250505060206040518083038186803b15801561023a57600080fd5b505af415801561024e573d6000803e3d6000fd5b505050506040513d602081101561026457600080fd5b81019080805190602001909291905050505050565b60008060008073__IterableMapping_______________________63a21ab71660006040518263ffffffff167c01000000000000000000000000000000000000000000000000000000000281526004018082815260200191505060206040518083038186803b1580156102eb57600080fd5b505af41580156102ff573d6000803e3d6000fd5b505050506040513d602081101561031557600080fd5b810190808051906020019092919050505092505b73__IterableMapping_______________________63c8fccc696000856040518363ffffffff167c0100000000000000000000000000000000000000000000000000000000028152600401808381526020018281526020019250505060206040518083038186803b15801561039d57600080fd5b505af41580156103b1573d6000803e3d6000fd5b505050506040513d60208110156103c757600080fd5b8101908080519060200190929190505050156105545773__IterableMapping_______________________6375a3e8e86000856040518363ffffffff167c01000000000000000000000000000000000000000000000000000000000281526004018083815260200182815260200192505050604080518083038186803b15801561045057600080fd5b505af4158015610464573d6000803e3d6000fd5b505050506040513d604081101561047a57600080fd5b81019080805190602001909291908051906020019092919050505091509150808401935073__IterableMapping_______________________6388d044376000856040518363ffffffff167c0100000000000000000000000000000000000000000000000000000000028152600401808381526020018281526020019250505060206040518083038186803b15801561051257600080fd5b505af4158015610526573d6000803e3d6000fd5b505050506040513d602081101561053c57600080fd5b81019080805190602001909291905050509250610329565b505050905600a165627a7a7230582079c2a584eefac84cef2175b1f7222f6d59f461ebd4f13bd91aafc3b671ecc3960029",
  "source": "pragma solidity ^0.4.18;\nimport \"./Iterable_mapping.sol\";\n//  调用合约\ncontract User {\n    // using for\n    IterableMapping.itmap data;\n\n    // 插入数据\n    function insert(uint key, uint value) returns(uint) {\n        IterableMapping.insert(data, key, value);\n        return data.size;\n    }\n\n    // 遍历求和\n    function sum() returns(uint s) {\n        for (var i = IterableMapping.iterate_start(data);\n        IterableMapping.iterate_valid(data, i);\n        i = IterableMapping.iterate_next(data,i)) {\n            var (key, value) = IterableMapping.iterate_get(data, i);\n            s += value;\n        }\n    }\n\n    // 删除\n    function remove(uint key) {\n        IterableMapping.remove(data, key);\n    }\n}\n",
  "sourcePath": "/home/eth/eth1802/day13/1_mapping/contracts/User.sol",
  "compiler": {
    "name": "solc",
    "version": "0.4.24+commit.e67f0147.Emscripten.clang"
  },
  "schemaVersion": "2.0.1",
  "updatedAt": "2018-11-29T01:43:54.384Z"
}